{
  "contractName": "BowheadDevChallenge",
  "abi": [
    {
      "anonymous": false,
      "inputs": [
        {
          "indexed": false,
          "internalType": "address",
          "name": "user",
          "type": "address"
        },
        {
          "indexed": false,
          "internalType": "uint256",
          "name": "earning",
          "type": "uint256"
        }
      ],
      "name": "NewUserEarnings",
      "type": "event"
    },
    {
      "anonymous": false,
      "inputs": [
        {
          "indexed": false,
          "internalType": "address",
          "name": "user",
          "type": "address"
        },
        {
          "indexed": false,
          "internalType": "uint256",
          "name": "level",
          "type": "uint256"
        }
      ],
      "name": "UserRegistered",
      "type": "event"
    },
    {
      "constant": false,
      "inputs": [
        {
          "internalType": "uint256",
          "name": "level",
          "type": "uint256"
        }
      ],
      "name": "registerUser",
      "outputs": [],
      "payable": false,
      "stateMutability": "nonpayable",
      "type": "function"
    },
    {
      "constant": false,
      "inputs": [
        {
          "internalType": "bytes32",
          "name": "data",
          "type": "bytes32"
        }
      ],
      "name": "addHealthData",
      "outputs": [],
      "payable": false,
      "stateMutability": "nonpayable",
      "type": "function"
    },
    {
      "constant": true,
      "inputs": [],
      "name": "getHealthData",
      "outputs": [
        {
          "internalType": "bytes32[]",
          "name": "userData",
          "type": "bytes32[]"
        }
      ],
      "payable": false,
      "stateMutability": "view",
      "type": "function"
    }
  ],
  "bytecode": "0x608060405234801561001057600080fd5b506105ca806100206000396000f3fe608060405234801561001057600080fd5b50600436106100415760003560e01c80631bbfae0e14610046578063919932d214610074578063e2329539146100d3575b600080fd5b6100726004803603602081101561005c57600080fd5b8101908080359060200190929190505050610101565b005b61007c610228565b6040518080602001828103825283818151815260200191508051906020019060200280838360005b838110156100bf5780820151818401526020810190506100a4565b505050509050019250505060405180910390f35b6100ff600480360360208110156100e957600080fd5b8101908080359060200190929190505050610377565b005b60008111610177576040517f08c379a00000000000000000000000000000000000000000000000000000000081526004018080602001828103825260208152602001807f546865206c6576656c206d7573742062652067726561746572207468616e203081525060200191505060405180910390fd5b806000803373ffffffffffffffffffffffffffffffffffffffff1673ffffffffffffffffffffffffffffffffffffffff168152602001908152602001600020819055507fe29d35093005f4d575e1003753426b57a7f64378ba73332eef9c6ccc2b8decd63382604051808373ffffffffffffffffffffffffffffffffffffffff1673ffffffffffffffffffffffffffffffffffffffff1681526020018281526020019250505060405180910390a150565b606060008060003373ffffffffffffffffffffffffffffffffffffffff1673ffffffffffffffffffffffffffffffffffffffff168152602001908152602001600020549050600081116102e3576040517f08c379a00000000000000000000000000000000000000000000000000000000081526004018080602001828103825260178152602001807f546865207573657220646f6573206e6f7420657869737400000000000000000081525060200191505060405180910390fd5b600260003373ffffffffffffffffffffffffffffffffffffffff1673ffffffffffffffffffffffffffffffffffffffff16815260200190815260200160002080548060200260200160405190810160405280929190818152602001828054801561036c57602002820191906000526020600020905b815481526020019060010190808311610358575b505050505091505090565b60008060003373ffffffffffffffffffffffffffffffffffffffff1673ffffffffffffffffffffffffffffffffffffffff16815260200190815260200160002054905060008111610430576040517f08c379a00000000000000000000000000000000000000000000000000000000081526004018080602001828103825260178152602001807f546865207573657220646f6573206e6f7420657869737400000000000000000081525060200191505060405180910390fd5b600060018060003373ffffffffffffffffffffffffffffffffffffffff1673ffffffffffffffffffffffffffffffffffffffff1681526020019081526020016000205401905080600160003373ffffffffffffffffffffffffffffffffffffffff1673ffffffffffffffffffffffffffffffffffffffff16815260200190815260200160002081905550600260003373ffffffffffffffffffffffffffffffffffffffff1673ffffffffffffffffffffffffffffffffffffffff1681526020019081526020016000208390806001815401808255809150509060018203906000526020600020016000909192909190915055507fe5757054728aef6cf2a9fad0ec3f084d682d2236659f4251f1e3f1f189b65ecc33828402604051808373ffffffffffffffffffffffffffffffffffffffff1673ffffffffffffffffffffffffffffffffffffffff1681526020018281526020019250505060405180910390a150505056fea265627a7a72315820fecf1ded2f636b8a985e04d0aa5e2b8a1d0fd4b342c10233c4d92047605a7d9364736f6c63430005100032",
  "source": "// SPDX-License-Identifier: GPLv3\npragma solidity >=0.4.22 <0.9.0;\n\ncontract BowheadDevChallenge {\n  mapping(address => uint) private UserLevel;\n  mapping(address => uint) private UserDataSubmissions;\n  mapping(address => bytes32[]) private UserData;\n\n  event UserRegistered(address user, uint level);\n  event NewUserEarnings(address user, uint earning);\n\n  function registerUser(uint level) external {\n    require(level > 0, 'The level must be greater than 0');\n    UserLevel[msg.sender] = level;\n\n    emit UserRegistered(msg.sender, level);\n  }\n\n  function addHealthData(bytes32 data) external {\n    uint userLevel = UserLevel[msg.sender];\n    require(userLevel > 0, 'The user does not exist');\n\n    uint submissions = UserDataSubmissions[msg.sender] + 1;\n    UserDataSubmissions[msg.sender] = submissions;\n\n    UserData[msg.sender].push(data);\n\n    emit NewUserEarnings(msg.sender, userLevel * submissions);\n  }\n\n  function getHealthData() external view returns (bytes32[] memory userData){\n    uint userLevel = UserLevel[msg.sender];\n    require(userLevel > 0, 'The user does not exist');\n\n    return UserData[msg.sender];\n  }\n\n\n}",
  "sourcePath": "/Users/cto/Sites/bowhead/mobile-dev-challenge/smart_contract/contracts/BowheadDevChallenge.sol",
  "compiler": {
    "name": "solc",
    "version": "0.5.16+commit.9c3226ce.Emscripten.clang"
  },
  "schemaVersion": "3.3.3",
  "updatedAt": "2021-01-20T15:38:19.705Z",
  "networkType": "ethereum",
  "devdoc": {
    "methods": {}
  },
  "userdoc": {
    "methods": {}
  }
}